:020000040800F2
:1000000000200020E10D0008290E0008290E00083C
:10001000290E0008290E0008290E00080000000023
:10002000000000000000000000000000290E000891
:10003000290E000800000000290E0008290E000803
:10004000290E0008290E0008290E0008290E0008B4
:10005000290E0008290E0008290E0008290E0008A4
:10006000290E0008290E0008290E0008290E000894
:10007000290E0008290E0008290E0008290E000884
:10008000290E0008290E0008290E000800000000B3
:10009000000000000000000000000000290E000821
:1000A000290E0008290E0008290E0008290E000854
:1000B000290E0008290E0008290E0008290E000844
:1000C000290E00080000000000000000290E0008B2
:1000D000290E0008290E0008290E0008290E000824
:1000E000290E0008290E0008290E00080000000053
:1000F0000000000000000000000000000000000000
:1001000000000000000000000000000000000000EF
:100110000000000000000000290E0008290E000861
:1001200000000000000000000000000000000000CF
:1001300000000000000000000000000000000000BF
:1001400000000000000000000000000000000000AF
:10015000000000000000000000000000000000009F
:10016000000000000000000000000000000000008F
:10017000000000000000000000000000000000007F
:10018000000000000000000000000000000000006F
:10019000000000000000000000000000000000005F
:1001A000000000000000000000000000000000004F
:1001B000000000000000000000000000000000003F
:1001C0000000000000000000000000005FF808F1DF
:1001D00080B500AF174B1B68164A43F0010313604C
:1001E000144B5A681349144B13404B60114B1B6856
:1001F000104A23F0847323F4803313600D4B1B6883
:100200000C4A23F4802313600A4B5B68094A23F4E9
:10021000FE035360074B4FF41F029A60054B002208
:10022000DA6200F07DF8054B4FF000629A6000BF83
:1002300080BD00BF001002400000FFF800ED00E0AC
:1002400080B485B000AF0023FB600023BB600023B7
:100250007B6000233B602D4B5B6803F00C03FB606D
:10026000FB68082B11D0FB68082B36D8FB68002BE5
:1002700003D0FB68042B04D02FE0254B254A1A60DD
:100280002FE0234B234A1A602BE0204B5B6803F4DA
:100290007013BB601D4B5B6803F480337B60BB68ED
:1002A0009B0C0233BB607B68002B06D1BB681A4AEB
:1002B00002FB03F3164A136013E0144BDB6A03F0EE
:1002C0000F0301333B60134A3B68B2FBF3F3BA6898
:1002D00002FB03F30E4A136003E00D4B0D4A1A6054
:1002E00000BF0A4B5B681B0903F00F030B4AD35C8A
:1002F000DBB2FB60064B1A68FB6822FA03F3044A80
:10030000136000BF1437BD4680BC70470010024028
:100310000000002000127A0000093D0004000020C7
:1003200080B500AF00F002F800BF80BD80B483B09C
:1003300000AF00237B6000233B60304B1B682F4ADB
:1003400043F4803313602D4B1B6803F400333B6090
:100350007B6801337B603B68002B03D17B68B3F57E
:10036000A06FF0D1254B1B6803F40033002B02D0A3
:1003700001233B6001E000233B603B68012B37D148
:100380001E4B1E4A5B6853601C4B1C4A5B685360E3
:100390001A4B1A4A5B685360184B5B68174A23F480
:1003A0007C135360154B5B68144A43F498135360F5
:1003B000124B1B68114A43F08073136000BF0F4B50
:1003C0001B6803F00073002BF9D00C4B5B680B4AE1
:1003D00023F003035360094B5B68084A43F00203B0
:1003E000536000BF054B5B6803F00C03082BF9D189
:1003F00000BF0C37BD4680BC704700BF00100240F4
:1004000070B50D4E0D4D761BB61006D0002455F874
:10041000043B01349847A642F9D1094E094D00F03A
:1004200005FD761BB61006D0002455F8043B0134B8
:100430009847A642F9D170BDA0130008A013000888
:10044000A4130008A013000810B5054C237833B995
:10045000044B13B10448AFF300800123237010BD97
:1004600018000020000000002C0E000808B5034B07
:100470001BB103490348AFF3008008BD0000000032
:100480001C0000202C0E0008017849B1054A138891
:1004900013F0800FFBD0918010F8011F0029F6D1D6
:1004A000704700BF0038014000B58FB0622934D0DA
:1004B0001B4B1C4A672914BF9C4694469CF800209D
:1004C00001AB9E4603F8012B1CF8012F002AF8D13E
:1004D000622907D0672905D082781A70C2780EF198
:1004E000030E04E042781A7082780EF1030E5A70FF
:1004F00020238EF8003025238EF801300D238EF84E
:1005000002300A238EF8033000238EF8043001A84D
:10051000FFF7BAFF0FB05DF804FBDFF80CC0CDE7C2
:10052000700E00089C0E0008440E000800B589B04B
:10053000104901AB0D2203F8012B11F8012F002AFD
:10054000F9D1421E033001E0904206D012F8011F9B
:100550000029F9D003F8011BF6E70D221A700A22D0
:100560005A7000229A7001A8FFF78EFF09B05DF85B
:1005700004FB00BFCC0E000800B589B00378FBB1C6
:100580006A4602F8013B10F8013F002BF9D10D4BF0
:10059000A3FB0103DB0803F13000107003EB8303BE
:1005A000A1EB4301303151700D2393700A23D370B6
:1005B000002313716846FFF767FF09B05DF804FB7D
:1005C0006A46E4E7CDCCCCCC10B50C4601460448D5
:1005D000FFF7D2FF21460348FFF7CEFF10BD00BF53
:1005E000E00E0008FC0E000884462A4B4FF4007011
:1005F00018614FF4807018612748038B13F0020FC5
:10060000FBD1254803889BB243F480730380838A1F
:1006100013F0010FFBD01F4B4FF000701861A3F5D2
:100620003C43782018821846838A13F0020FFBD0CF
:10063000194B1B8B174B4FF0807018611648838A3B
:1006400013F0800FFBD08CF001039B011248038252
:10065000838A13F0040FFBD00F48838A13F0800FB6
:10066000FBD05AB14FF0000C0B480182838A13F083
:10067000800FFBD00CF1010C6245F6D1064A938A3B
:1006800013F0040FFBD0044A13889BB243F40073A9
:10069000138070470010014000540040F8B5203826
:1006A00035281CD8DFE800F0431B1B1B1B3F1B1B1E
:1006B0001B1B1B1B1B411B1B1B532F313335373996
:1006C0003B3D1B1B1B1B1B1B1B1B451B1B4B1B4DAC
:1006D0001B1B1B1B471B511B1B1B4F1B1B490023B9
:1006E00003EB43035B005C1E1A4D2C4405351D448F
:1006F000012700263A4614F8011F3046FFF774FF21
:10070000AC42F7D1F8BD0223EAE70323E8E704236C
:10071000E6E70523E4E70623E2E70723E0E708230B
:10072000DEE70923DCE70A23DAE70B23D8E70C230B
:10073000D6E70D23D4E70E23D2E70F23D0E710230B
:10074000CEE71123CCE71223CAE71323C8E701231E
:10075000C6E700BF200F00082DE9F8430D461646F6
:10076000672845D062285DD0012200211046FFF79E
:100770003BFF012210211046FFF736FF0C2200211B
:100780000120FFF731FF012200211046FFF72CFF67
:10079000012210211046FFF727FF303DEDB205EB97
:1007A00045056D006C1E2C4F3C4405373D444FF011
:1007B00001094FF000084A4614F8011F4046FFF7B0
:1007C00013FFAC42F7D1303EF6B206EB4606234C9F
:1007D00004EB460407EB4605012700263A4614F8C9
:1007E000011F3046FFF700FFAC42F7D1BDE8F883A8
:1007F0000122B1211046FFF7F7FE01220021104629
:10080000FFF7F2FE012210211046FFF7EDFE0C2249
:1008100000210120FFF7E8FE0122B1211046FFF779
:10082000E3FEB0E70122B3211046FFF7DDFE01220F
:1008300000211046FFF7D8FE012210211046FFF7D5
:10084000D3FE0C2200210120FFF7CEFE0122B321AE
:100850001046FFF7C9FE96E7200F00081F0F00089B
:10086000F8B5B0240127802600253A4621463846AF
:10087000FFF7BAFE324629462846FFF7B5FE013497
:10088000E4B2B82CF1D1F8BD2DE9F04383B072B6D3
:10089000BF4B9A6942F001029A619A699A6942F0E3
:1008A00008029A61BB494A6842F0FF024A60DA696D
:1008B00042F40012DA61DB69B74B1A8822F00102B8
:1008C0001204120C1A809A8892B222F03F0242F06F
:1008D00020029A801A8C92B222F03F0242F021024A
:1008E0001A849A8B02F4405242F0B4029A831A8816
:1008F00092B242F001021A809A8922F0FE0212049A
:10090000120C9A81A54A536843F0020353600122F6
:10091000AE211046FFF768FE01228D211046FFF739
:1009200063FE012214211046FFF75EFE0122AF2173
:100930001046FFF759FEFFF793FF994E4FF0B008AE
:10094000012500274FF010092A4641462846FFF7A7
:100950004BFE2A4639462846FFF746FE2A464946B8
:100960002846FFF741FEA6F180042A4614F8011F2D
:100970003846FFF739FEB442F7D108F101085FFAB3
:1009800088F88036B8F1B80FDED1864B013BFDD137
:10099000FFF766FF0122B1211046FFF725FE012275
:1009A00000211046FFF720FE012210211046FFF71C
:1009B0001BFE7D4D28787D4CA4FB0030C0083030F4
:1009C000FFF76CFE2B78A4FB0312D20802EB820225
:1009D000A3EB420303F13000C0B2FFF75FFE252016
:1009E000FFF75CFE2020FFF759FE2D20FFF756FE93
:1009F0002020FFF753FE4720FFF750FE5220FFF75D
:100A00004DFE4520FFF74AFE4520FFF747FE4E20EA
:100A1000FFF744FE0122B3211046FFF7E5FD012256
:100A200000211046FFF7E0FD012210211046FFF7DC
:100A3000DBFD5F4E3078A4FB0030C0083030FFF79C
:100A40002DFE3278A4FB0213DB0803EB8303A2EB39
:100A5000430202F13000C0B2FFF720FE2520FFF76D
:100A60001DFE2020FFF71AFE2D20FFF717FE202085
:100A7000FFF714FE4220FFF711FE4C20FFF70EFE99
:100A80005520FFF70BFE4520FFF708FE404A93690B
:100A900043F480439361936943F004039361454BAE
:100AA000596821F0C0015960596841F0B00159609E
:100AB000596821F440615960596841F400615960F6
:100AC000196941F48061196103F5405340F6C4117E
:100AD000198142F20C019981936943F010039361EB
:100AE000354B596841F003015960596821F00C01F8
:100AF0005960596841F008015960596841F0300166
:100B00005960596821F0C0015960596841F080016D
:100B10005960D36943F00203D361936943F0010341
:100B20009361A2F58832536843F440635360234BCA
:100B3000F0221A8564229A859A8B92B242F0600262
:100B40009A839A8B92B242F4C0429A831A8C92B2E0
:100B500042F480721A841A8C92B242F480521A843F
:100B60001A8892B242F080021A801A8892B242F039
:100B700001021A8032789A872A78A3F8402000254B
:100B8000019500950E4C0F4F0F4EBDE00025BBE0C8
:100B900000100240000C01400054004000000140E1
:100BA0001710000881C3C90115000020CDCCCCCCA2
:100BB0001400002000080140001001400004004023
:100BC00000380140180F00081C0F0008002205F132
:100BD00008036B4403F8042C032D0CD0042D76D1AC
:100BE0009DF80430672B40D0622B70D19DF8053002
:100BF000672B6CD13DE09DF80550A5F13003DBB2C9
:100C0000092B60D89DF80680A8F13002D2B2092ADB
:100C10005DD803EB830302EB4303DBB29DF80420B2
:100C2000622A05D0672A11D001A8FFF77FFC51E0A6
:100C3000684A9387684A1370622101A8FFF734FC61
:100C4000424629466220FFF787FD43E0614AA2F849
:100C50004030624A1370672101A8FFF725FC424625
:100C600029466720FFF778FD34E09DF80530622BB8
:100C70002DD19DF80650A5F13003DBB2092B26D803
:100C80009DF80780A8F13002D2B2092A1FD803EBE1
:100C9000830302EB4303DBB24E4A9387A2F8403052
:100CA0004D4A13704D4A1370424629466220FFF7A1
:100CB00053FD424629466720FFF74EFD632101A8F8
:100CC000FFF7F2FB06E09DF80430692B41D001A844
:100CD000FFF72CFC9DF804308DF800309DF80530AE
:100CE0008DF801309DF806308DF802309DF8073000
:100CF0008DF8033020238DF804308DF805308DF801
:100D000006308DF807300025238813F0200FFBD024
:100D1000A28891B2D2B2238813F0800FFBD0CBB25D
:100D2000A3800D2A3FF452AF0A2A3FF44FAF7F2A27
:100D30001CD0082A1AD0202A1DD0042D3FF626AF39
:100D40006B1C05F108010DEB010505F8042CDDB263
:100D5000DAE76E2DBBD19DF80630662BB7D11E4B5E
:100D600019781E4B1878FFF72FFCB3E7002DCBD076
:100D7000013DEDB2C8E79DF800308DF804309DF8D4
:100D800001308DF805309DF802308DF806309DF861
:100D900003308DF8073001AB002513F8012B1AB191
:100DA0000135EDB2042DF8D13846FFF76DFB304622
:100DB000FFF76AFB3046FFF767FB3046FFF764FB3F
:100DC0003046FFF761FB3846FFF75EFB01A8FFF7EF
:100DD0005BFB99E700040040140000201500002090
:100DE000FFF7F6F90B480C490C4A002302E0D458EF
:100DF000C4500433C4188C42F9D3094A094C002367
:100E000001E013600432A242FBD3FFF7F9FAFFF7C7
:100E10003BFD70470000002018000020A8130008C8
:100E20001800002034000020FEE70000F8B500BFE5
:100E3000F8BC08BC9E467047F8B500BFF8BC08BCBB
:040E40009E46704713
:100E44000D0A546865206272696768746E6573730D
:100E5400206F662074686520626C7565204C45447B
:100E64002069732073657420746F20000D0A546820
:100E740065206272696768746E657373206F66209B
:100E8400626F7468204C45447320697320736574E1
:100E940020746F20000000000D0A546865206272FF
:100EA400696768746E657373206F66207468652063
:100EB400677265656E204C454420697320736574C0
:100EC40020746F20000000000D0A496E76616C6981
:100ED4006420636F6D6D616E642000000D0A4272C0
:100EE400696768746E657373206F6620626C7565DC
:100EF400204C4544202D20004272696768746E6559
:100F04007373206F6620677265656E204C454420BC
:100F14002D2000000D00000020000000003E51497B
:100F2400453E0000427F4000004261514946002195
:100F340041454B31001814127F10002745454539AF
:100F4400003C4A494930000171090503003649490A
:100F5400493600064949291E002313086462000823
:100F640008080808000000000000007F49494936CD
:100F7400007F40404040003F4040403F007F49499F
:100F84004941003E4149497A007F09192946007FB9
:100F94000408107F000000000000000000000000B2
:100FA40000000000000000000000000000F8180825
:100FB400080808888888888888888888888888882D
:100FC400888888888888888888888888888888889D
:100FD400888888888888888888888888888888888D
:100FE400888888888888888888888888888888887D
:100FF4008888888888888888888808080808F80085
:1010040000000000000000000000000000000000DC
:1010140000000000000000000000000000000000CC
:1010240000000000000000000000000000FF0000BD
:101034000000FF01000000000000000000000000AC
:10104400000000E0F8FFFFFF7FFFFFFFFCE08000EF
:101054000000000000000000000000000001FFFF8D
:10106400FFFFFFFF1F0F0F0F0F0F0F0F0F0F0F0FBC
:101074000F0F0F0F0F0F0F0F0FFF00000000FF00E7
:10108400000000000000000000000000000000005C
:10109400000000000000000000000000000000004C
:1010A40000000000000000000000000000FF00003D
:1010B4000000FF000000000000000000000000C06D
:1010C400F0FCFFFF3F0F03000000030F7FFFFFFE54
:1010D400F8E0800000000000000000000000FFFFB6
:1010E400FFFFFFFF00000000000000000000000000
:1010F400000000000000000000FF00000000FF00EE
:1011040000000000000000000000000000000000DB
:1011140000000000000000000000000000000000CB
:1011240000000000000000000000000000FF0000BC
:101134000000FF8E0C0C0C0C0C0C0C0C0E0E0F0F84
:101144000F0F0F0F0E0C0C0C0C0C0C0C0C0F0F0FC4
:101154000F0F0F0E0E0C0C0C0C0C0C0C0C0E0F0FB6
:101164000F0F0F0F0E0C0C0C0C0C0C0C0C0C0C0CAD
:101174000C0C0C0C0C0C0C0C0EFF00000000FF00FF
:10118400000000000000000000000000000000005B
:10119400000000000000000000000000000000004B
:1011A40000000000000000000000000000FF00003C
:1011B4000000FFFFFFFF7F1F0701000080E0F8FE33
:1011C400FFFFFFFFFFFFFFFFFFFFFFFFFFFFFFFF2B
:1011D400FFFEF0C000000001071F7FFFFFFF0000BB
:1011E40000000000FFFFFFFFFFFFFFFFFFFFFFFF07
:1011F400FFFFFFFFFFFFFFFFFFFF00000000FF00F6
:1012040000000000000000000000000000000000DA
:1012140000000000000000000000000000000000CA
:1012240000000000000000000000000000FF0000BB
:101234000000FF3F0701000080E0F8FCFFFFFFFF14
:10124400FFFFFFFFFFFFFFFFFFFFFFFFFFFFFFFFAA
:10125400FFFFFFFFFFFCF080000000030F1F0000F2
:101264000000000007070707070707070707070726
:10127400070707070707070707FF00000000FF002D
:10128400000000000000000000000000000000005A
:10129400000000000000000000000000000000004A
:1012A400000000000080E0E0800008E8282FE80843
:1012B40008E82929E90909E909090909E909E929DC
:1012C400292909E9292969C909090909E9292929CA
:1012D40009E909090909E929292909C92929C9099A
:1012E40029E92909E9292929C909C9292969C9092A
:1012F400E98909E90909E909E92928E808E82F2819
:10130400E8080000000000000000000000000000E9
:1013140000000000000000000000000000000000C9
:1013240000000000203F08083F20003F040407009D
:10133400003F04040700003F202020003F003F221C
:101344002222003F2020301F000000003F222222E2
:10135400003F202020003F222222001F20201800CE
:10136400003F00003F02020E31001F2020300F001A
:101374003F030E3F00003F003F2020180039222287
:101384003C0000000000000000000000000000001D
:041394000000000055
:08139800F0F0FF7F01000000EE
:0413A0006D040008D0
:0413A40049040008F0
:1013A80000366E0100000000000000000102030486
:0813B800060708096336000076
:0400000508000DE101
:00000001FF
