:020000040800F2
:1000000000200020210A0008690A0008690A000887
:10001000690A0008690A0008690A0008000000006F
:10002000000000000000000000000000690A000855
:10003000690A000800000000690A0008690A00084F
:10004000690A0008690A0008690A0008690A0008C4
:10005000690A0008690A0008690A0008690A0008B4
:10006000690A0008690A0008690A0008690A0008A4
:10007000690A0008690A0008690A0008690A000894
:10008000690A0008690A0008690A000800000000FF
:10009000000000000000000000000000690A0008E5
:1000A000690A0008690A0008690A0008690A000864
:1000B000690A0008690A0008690A0008690A000854
:1000C000690A00080000000000000000690A00083A
:1000D000690A0008690A0008690A0008690A000834
:1000E000690A0008690A0008690A0008000000009F
:1000F0000000000000000000000000000000000000
:1001000000000000000000000000000000000000EF
:100110000000000000000000690A0008690A0008E9
:1001200000000000000000000000000000000000CF
:1001300000000000000000000000000000000000BF
:1001400000000000000000000000000000000000AF
:10015000000000000000000000000000000000009F
:10016000000000000000000000000000000000008F
:10017000000000000000000000000000000000007F
:10018000000000000000000000000000000000006F
:10019000000000000000000000000000000000005F
:1001A000000000000000000000000000000000004F
:1001B000000000000000000000000000000000003F
:1001C0000000000000000000000000005FF808F1DF
:1001D00080B500AF174B1B68164A43F0010313604C
:1001E000144B5A681349144B13404B60114B1B6856
:1001F000104A23F0847323F4803313600D4B1B6883
:100200000C4A23F4802313600A4B5B68094A23F4E9
:10021000FE035360074B4FF41F029A60054B002208
:10022000DA6200F07DF8054B4FF000629A6000BF83
:1002300080BD00BF001002400000FFF800ED00E0AC
:1002400080B485B000AF0023FB600023BB600023B7
:100250007B6000233B602D4B5B6803F00C03FB606D
:10026000FB68082B11D0FB68082B36D8FB68002BE5
:1002700003D0FB68042B04D02FE0254B254A1A60DD
:100280002FE0234B234A1A602BE0204B5B6803F4DA
:100290007013BB601D4B5B6803F480337B60BB68ED
:1002A0009B0C0233BB607B68002B06D1BB681A4AEB
:1002B00002FB03F3164A136013E0144BDB6A03F0EE
:1002C0000F0301333B60134A3B68B2FBF3F3BA6898
:1002D00002FB03F30E4A136003E00D4B0D4A1A6054
:1002E00000BF0A4B5B681B0903F00F030B4AD35C8A
:1002F000DBB2FB60064B1A68FB6822FA03F3044A80
:10030000136000BF1437BD4680BC70470010024028
:100310000000002000127A0000093D0004000020C7
:1003200080B500AF00F002F800BF80BD80B483B09C
:1003300000AF00237B6000233B60304B1B682F4ADB
:1003400043F4803313602D4B1B6803F400333B6090
:100350007B6801337B603B68002B03D17B68B3F57E
:10036000A06FF0D1254B1B6803F40033002B02D0A3
:1003700001233B6001E000233B603B68012B37D148
:100380001E4B1E4A5B6853601C4B1C4A5B685360E3
:100390001A4B1A4A5B685360184B5B68174A23F480
:1003A0007C135360154B5B68144A43F498135360F5
:1003B000124B1B68114A43F08073136000BF0F4B50
:1003C0001B6803F00073002BF9D00C4B5B680B4AE1
:1003D00023F003035360094B5B68084A43F00203B0
:1003E000536000BF054B5B6803F00C03082BF9D189
:1003F00000BF0C37BD4680BC704700BF00100240F4
:1004000070B50D4E0D4D761BB61006D0002455F874
:10041000043B01349847A642F9D1094E094D00F03A
:1004200025FB761BB61006D0002455F8043B01349A
:100430009847A642F9D170BD680B0008680B000808
:100440006C0B0008680B000820F0030110F003009B
:10045000C0F1000051F8043B00F1040C4FEACC0C51
:100460006FF000021CBF22FA0CF213434FF0010C94
:100470004CEA0C2C4CEA0C4CA3EB0C0222EA0302D3
:1004800012EACC1204BF51F8043B0430F4D0C2F19C
:10049000000102EA0102B2FA82F2C2F11F0200EB8D
:1004A000D200704730B540EA0104A30722D1032AE5
:1004B00020D90B468446194653F8045BA5F1013454
:1004C00024EA050414F0803F15D1043A032A1946A2
:1004D0004CF8045BEFD801F1FF3E52B163461EF8C1
:1004E000011F541E03F8011B41B122469C46002AFD
:1004F000F4D130BD844601F1FF3EEEE76244002CAA
:10050000F7D003F8011B9342FBD130BD10B5054C69
:10051000237833B9044B13B10448AFF300800123AF
:10052000237010BD14000020000000006C0A0008B9
:1005300008B5034B1BB103490348AFF3008008BD66
:1005400000000000180000206C0A0008017849B182
:10055000054A138813F0800FFBD0918010F8011F1B
:100560000029F6D1704700BF0038014030B591B086
:100570008646622941D067294BD00DF1040C2B4CE3
:100580000FCCACE80F000FCCACE80F0094E80700EC
:10059000ACE803008CF80020282303F140026A44F1
:1005A0009EF8011002F83C1C03F140026A449EF8D8
:1005B000021002F83B1C03F140026A44202102F8B9
:1005C0003A1C03F140026A44252102F8391C03F168
:1005D00040026A440D2102F8381C03F140026A44CB
:1005E0000A2102F8371C46336B44002203F83C2CE6
:1005F00001A8FFF7ABFF11B030BD01AC0C4D0FCD22
:100600000FC40FCD0FC495E8070084E807002B2323
:10061000C3E701AC074D0FCD0FC40FCD0FC495E854
:100620000F0007C423702C23B7E700BFE00A0008BF
:10063000840A0008B00A000810B590B084460DF195
:10064000040E1B4C0FCCAEE80F0023682EF8023BC3
:100650001B0C8EF800300CF1FF320CF1030012235A
:1006600001E082420AD012F8011F0029F9D05C1C77
:1006700040336B4403F83C1CE3B2F2E703F1400261
:100680006A440D2102F83C1C5A1CD2B240326A4422
:100690000A2102F83C1C0233DBB240336B440022D7
:1006A00003F83C2C01A8FFF751FF10B010BD00BFAC
:1006B0000C0B000870B590B005460E460DF1040C09
:1006C000214C0FCCACE80F0094E80700ACE8030025
:1006D000ACF800201D4CA4FB0523DB0803F130021D
:1006E0008DF81E2003EB8303A5EB430530358DF811
:1006F0001F500D238DF820300A238DF82130002360
:100700008DF8223001A8FFF721FF0DF1040C104DE8
:100710000FCDACE80F0095E80700ACE80300ACF89B
:100720000020A4FB0623DB0803F130028DF81E2015
:1007300003EB8303A6EB430630368DF81F6001A858
:10074000FFF704FF10B070BD200B0008CDCCCCCC5F
:100750003C0B00082DE9F04383B0AA4A936943F4A7
:1007600080439361936943F004039361A64B5968F6
:1007700021F0C0015960596841F0B00159605968D1
:1007800021F440615960596841F400615960196968
:1007900041F48061196103F5405340F6C411198199
:1007A00042F20C019981936943F010039361974BD6
:1007B000596841F003015960596821F00C015960F2
:1007C000596841F008015960596841F03001596099
:1007D000596821F0C0015960596841F080015960A1
:1007E000D36943F00203D361936943F0010393613A
:1007F000A2F58832536843F440635360844BF0227F
:100800001A8564229A859A8B92B242F060029A838A
:100810009A8B92B242F4C0429A831A8C92B242F4FA
:1008200080721A841A8C92B242F480521A841A8806
:1008300092B242F080021A801A8892B242F001020B
:100840001A80002501950095A8462E46714CDFF8C8
:10085000C891724F2CE000252AE0002205F1080320
:100860006B4403F8042C032D0CD0042D13D19DF8F8
:100870000430672B71D0622B0DD19DF80530672BAA
:1008800009D16EE09DF80430622B33D0672B4BD03A
:10089000692B00F0818001A8FFF7CEFE04220DEB4A
:1008A00002016846FFF7FEFD4FF02033019300255B
:1008B000238813F0200FFBD0A28891B2D2B22388F4
:1008C00013F0800FFBD0CBB2A3800D2AC5D00A2A2B
:1008D000C3D07F2A6FD0082A6DD0202A71D0042D72
:1008E000B9D86B1C05F108010DEB010505F8042CC6
:1008F000DDB2DDE79DF80530303BDBB2092BCAD80D
:100900009DF80620303AD2B2092AC4D803EB8303FB
:1009100002EB43025FFA82F83D4BA3F83C80622170
:1009200001A8FFF723FEB9E79DF80530303BDBB2A5
:10093000092BB0D89DF80620303AD2B2092AAAD89D
:1009400003EB830302EB4302D6B2314BA3F84060C2
:10095000672101A8FFF70AFEA0E79DF80530622B8A
:1009600099D19DF80630303BDBB2092B93D89DF826
:100970000720303AD2B2092A8DD803EB830302EB69
:100980004302D6B2224B9E87A3F84060632101A8A0
:10099000FFF7ECFDB04681E79DF805306E2B7FF444
:1009A0007AAF9DF80630662B7FF475AF414630462E
:1009B000FFF780FE72E7002D3FF47AAF013DEDB204
:1009C00076E7042269460DEB0200FFF76BFD01A8F4
:1009D000FFF73AFDC5B24846FFF7B8FD3846FFF7C6
:1009E000B5FD3846FFF7B2FD3846FFF7AFFD384694
:1009F000FFF7ACFD4846FFF7A9FD01A8FFF7A6FDEC
:100A000056E700BF001002400008014000100140FE
:100A10000004004000380140580B00085C0B00083F
:100A2000FFF7D6FB0B480C490C4A002302E0D458D0
:100A3000C4500433C4188C42F9D3094A094C00232A
:100A400001E013600432A242FBD3FFF7D9FCFFF7A9
:100A500081FE70470000002014000020700B000889
:100A60001400002030000020FEE70000F8B500BFB1
:100A7000F8BC08BC9E467047F8B500BFF8BC08BC7F
:040A80009E467047D7
:100A84000D0A546865206272696768746E657373D1
:100A9400206F662074686520626C7565204C45443F
:100AA4002069732073657420746F20000D0A5468E4
:100AB40065206272696768746E657373206F66205F
:100AC40074686520677265656E204C4544206973BF
:100AD4002073657420746F20000000000D0A5468B0
:100AE40065206272696768746E657373206F66202F
:100AF400626F7468204C4544732069732073657475
:100B040020746F20000000000D0A496E76616C6944
:100B14006420636F6D6D616E642000000D0A427283
:100B2400696768746E657373206F6620626C75659F
:100B3400204C4544202D20004272696768746E651C
:100B44007373206F6620677265656E204C45442080
:0C0B54002D2000000D000000200000001B
:080B6000ECF9FF7F0100000029
:040B6800310500084B
:040B6C000D0500086B
:100B700000366E01000000000000000001020304C6
:040B80000607080953
:0400000508000A21C4
:00000001FF
