:020000040800F2
:10000000002000204D0B0008950B0008950B000800
:10001000950B0008950B0008950B000800000000E8
:10002000000000000000000000000000950B000828
:10003000950B000800000000950B0008950B0008C8
:10004000950B0008950B0008950B0008950B000810
:10005000950B0008950B0008950B0008950B000800
:10006000950B0008950B0008950B0008950B0008F0
:10007000950B0008950B0008950B0008950B0008E0
:10008000950B0008950B0008950B00080000000078
:10009000000000000000000000000000950B0008B8
:1000A000950B0008950B0008950B0008950B0008B0
:1000B000950B0008950B0008950B0008950B0008A0
:1000C000950B00080000000000000000950B0008E0
:1000D000950B0008950B0008950B0008950B000880
:1000E000950B0008950B0008950B00080000000018
:1000F0000000000000000000000000000000000000
:1001000000000000000000000000000000000000EF
:100110000000000000000000950B0008950B00088F
:1001200000000000000000000000000000000000CF
:1001300000000000000000000000000000000000BF
:1001400000000000000000000000000000000000AF
:10015000000000000000000000000000000000009F
:10016000000000000000000000000000000000008F
:10017000000000000000000000000000000000007F
:10018000000000000000000000000000000000006F
:10019000000000000000000000000000000000005F
:1001A000000000000000000000000000000000004F
:1001B000000000000000000000000000000000003F
:1001C0000000000000000000000000005FF808F1DF
:1001D00080B500AF174B1B68164A43F0010313604C
:1001E000144B5A681349144B13404B60114B1B6856
:1001F000104A23F0847323F4803313600D4B1B6883
:100200000C4A23F4802313600A4B5B68094A23F4E9
:10021000FE035360074B4FF41F029A60054B002208
:10022000DA6200F07DF8054B4FF000629A6000BF83
:1002300080BD00BF001002400000FFF800ED00E0AC
:1002400080B485B000AF0023FB600023BB600023B7
:100250007B6000233B602D4B5B6803F00C03FB606D
:10026000FB68082B11D0FB68082B36D8FB68002BE5
:1002700003D0FB68042B04D02FE0254B254A1A60DD
:100280002FE0234B234A1A602BE0204B5B6803F4DA
:100290007013BB601D4B5B6803F480337B60BB68ED
:1002A0009B0C0233BB607B68002B06D1BB681A4AEB
:1002B00002FB03F3164A136013E0144BDB6A03F0EE
:1002C0000F0301333B60134A3B68B2FBF3F3BA6898
:1002D00002FB03F30E4A136003E00D4B0D4A1A6054
:1002E00000BF0A4B5B681B0903F00F030B4AD35C8A
:1002F000DBB2FB60064B1A68FB6822FA03F3044A80
:10030000136000BF1437BD4680BC70470010024028
:100310000000002000127A0000093D0004000020C7
:1003200080B500AF00F002F800BF80BD80B483B09C
:1003300000AF00237B6000233B60304B1B682F4ADB
:1003400043F4803313602D4B1B6803F400333B6090
:100350007B6801337B603B68002B03D17B68B3F57E
:10036000A06FF0D1254B1B6803F40033002B02D0A3
:1003700001233B6001E000233B603B68012B37D148
:100380001E4B1E4A5B6853601C4B1C4A5B685360E3
:100390001A4B1A4A5B685360184B5B68174A23F480
:1003A0007C135360154B5B68144A43F498135360F5
:1003B000124B1B68114A43F08073136000BF0F4B50
:1003C0001B6803F00073002BF9D00C4B5B680B4AE1
:1003D00023F003035360094B5B68084A43F00203B0
:1003E000536000BF054B5B6803F00C03082BF9D189
:1003F00000BF0C37BD4680BC704700BF00100240F4
:1004000070B50D4E0D4D761BB61006D0002455F874
:10041000043B01349847A642F9D1094E094D00F03A
:10042000BBFB761BB61006D0002455F8043B013404
:100430009847A642F9D170BDC00C0008C00C000856
:10044000C40C0008C00C0008830730B548D0541E07
:10045000002A3FD00346CAB201E0013C3AD303F878
:10046000012B9D07F9D1032C2DD9CDB245EA0525E5
:100470000F2C45EA054536D9A4F1100222F00F0CE5
:1004800003F1200EE6444FEA121C03F1100242E988
:10049000045542E9025510327245F8D10CF10102BF
:1004A00014F00C0F03EB021204F00F0C13D0ACF19C
:1004B000040323F003030433134442F8045B934220
:1004C000FBD10CF003042CB1CAB21C4403F8012B7D
:1004D0009C42FBD130BD64461346002CF4D1F9E7B1
:1004E00003461446BFE71A46A446E0E720F003019E
:1004F00010F00300C0F1000051F8043B00F1040CBF
:100500004FEACC0C6FF000021CBF22FA0CF213432E
:100510004FF0010C4CEA0C2C4CEA0C4CA3EB0C02F7
:1005200022EA030212EACC1204BF51F8043B043061
:10053000F4D0C2F1000102EA0102B2FA82F2C2F181
:100540001F0200EBD200704730B540EA0104A30758
:1005500022D1032A20D90B468446194653F8045B5E
:10056000A5F1013424EA050414F0803F15D1043AC2
:10057000032A19464CF8045BEFD801F1FF3E52B153
:1005800063461EF8011F541E03F8011B41B12246A9
:100590009C46002AF4D130BD844601F1FF3EEEE7CF
:1005A0006244002CF7D003F8011B9342FBD130BD0D
:1005B00010B5054C237833B9044B13B10448AFF39D
:1005C00000800123237010BD1400002000000000F3
:1005D000980B000808B5034B1BB103490348AFF360
:1005E000008008BD0000000018000020980B0008E3
:1005F000017849B1054A138813F0800FFBD0918030
:1006000010F8011F0029F6D1704700BF00380140E3
:1006100010B590B086460DF1040C144C0FCCACE82C
:100620000F000FCCACE80F0094E807008CE807003F
:1006300000230D930E930F939EF801308DF82F3009
:100640009EF802308DF8303020238DF8313025238C
:100650008DF832300D238DF833300A238DF8343085
:1006600001A8FFF7C5FF10B010BD00BFB00B000818
:1006700010B590B086460DF1040C164C0FCCACE8CA
:100680000F000FCCACE80F0094E80F00ACE80700B7
:100690008CF800300023CDF83530CDF839300F9389
:1006A0009EF801308DF830309EF802308DF83130F0
:1006B00020238DF8323025238DF833300D238DF82B
:1006C00034300A238DF8353001A8FFF791FF10B0C0
:1006D00010BD00BFEC0B000810B590B086460DF1C0
:1006E000040C174C0FCCACE80F000FCCACE80F009B
:1006F00094E80700ACE803008CF800200023CDF854
:100700003130CDF83530CDF839300F939EF80230C6
:100710008DF82C309EF803308DF82D3020238DF885
:100720002E3025238DF82F300D238DF830300A23FD
:100730008DF8313001A8FFF75BFF10B010BD00BF8E
:10074000280C000830B591B004461F4D0DF1040C83
:1007500028686968AA68EB68ACE80F002A8AAB7C55
:10076000ACF800208CF80230292200210DF117008E
:10077000FFF76AFE621EE01C122301E082420AD0EB
:1007800012F8011F0029F9D05C1C40336B4403F8B8
:100790003C1CE3B2F2E703F140026A440D2102F887
:1007A0003C1C5A1CD2B240326A440A2102F83C1C5A
:1007B0000233DBB240336B44002203F83C2C01A827
:1007C000FFF716FF11B030BD640C00082DE9F041B1
:1007D00090B006460D460DF1040C284C0FCCACE849
:1007E0000F0094E80700ACE803002CF8022B120C71
:1007F0008CF80020224CA4FB0623DB0803F1300216
:100800008DF81F2003EB8303A6EB430630368DF8EB
:1008100020604FF00D088DF821800A278DF8227096
:1008200000268DF8236001A8FFF7E2FE0DF1040C0D
:10083000DFF850E0BEE80F00ACE80F009EE80700CC
:10084000ACE80300ACF80020A4FB0523DB0803F1AF
:1008500030028DF81E2003EB8303A5EB43053035F2
:100860008DF81F508DF820808DF821708DF8226052
:1008700001A8FFF7BDFE10B0BDE8F081780C0008BC
:10088000CDCCCCCC940C00082DE9F04383B0A84A21
:10089000936943F480439361936943F00403936144
:1008A000A44B596821F0C0015960596841F0B0016A
:1008B0005960596821F440615960596841F40061F8
:1008C0005960196941F48061196103F5405340F69C
:1008D000C411198142F20C019981936943F010030C
:1008E0009361954B596841F003015960596821F0B3
:1008F0000C015960596841F008015960596841F08C
:1009000030015960596821F0C0015960596841F0BF
:1009100080015960D36943F00203D361936943F0C6
:1009200001039361A2F58832536843F44063536036
:10093000824BF0221A8564229A859A8B92B242F0F9
:1009400060029A839A8B92B242F4C0429A831A8CC4
:1009500092B242F480721A841A8C92B242F480529B
:100960001A841A8892B242F080021A801A8892B2CF
:1009700042F001021A80002501950095A8462E46F6
:100980006F4CDFF8C091704F2BE0002529E000226A
:1009900005F108036B4403F8042C032D0CD0042D3F
:1009A00012D19DF80430672B6ED0622B0CD19DF8CC
:1009B0000530672B08D16BE09DF80430622B32D0F4
:1009C000672B49D0692B7DD001A8FFF7BBFE04221D
:1009D0000DEB02016846FFF7B7FD4FF0203301939E
:1009E0000025238813F0200FFBD0A28891B2D2B249
:1009F000238813F0800FFBD0CBB2A3800D2AC6D082
:100A00000A2AC4D07F2A6CD0082A6AD0202A6ED045
:100A1000042DBAD86B1C05F108010DEB010505F892
:100A2000042CDDB2DDE79DF80530303BDBB2092B4D
:100A3000CAD89DF80620303AD2B2092AC4D803EBAE
:100A4000830302EB43025FFA82F83C4BA3F83C803D
:100A500001A8FFF7DDFDBAE79DF80530303BDBB2BA
:100A6000092BB1D89DF80620303AD2B2092AABD86A
:100A700003EB830302EB4302D6B2304BA3F8406092
:100A800001A8FFF7F5FDA2E79DF80530622B9BD189
:100A90009DF80630303BDBB2092B95D89DF8072036
:100AA000303AD2B2092A8FD803EB830302EB430218
:100AB000D6B2224B9E87A3F8406001A8FFF70CFE38
:100AC000B04684E79DF805306E2B7FF47DAF9DF82E
:100AD0000630662B7FF478AF41463046FFF776FE4E
:100AE00075E7002D3FF47DAF013DEDB279E70422BB
:100AF00069460DEB0200FFF727FD01A8FFF7F6FCA2
:100B0000C5B24846FFF774FD3846FFF771FD384619
:100B1000FFF76EFD3846FFF76BFD3846FFF768FDBF
:100B20004846FFF765FD01A8FFF762FD59E700BFE2
:100B30000010024000080140001001400004004085
:100B400000380140B00C0008B40C0008FFF740FB6F
:100B50000B480C490C4A002302E0D458C45004331B
:100B6000C4188C42F9D3094A094C002301E01360F0
:100B70000432A242FBD3FFF743FCFFF785FE704728
:100B80000000002014000020C80C00081400002001
:100B900030000020FEE70000F8B500BFF8BC08BC3C
:100BA0009E467047F8B500BFF8BC08BC9E4670472B
:100BB0000D0A546865206272696768746E657373A4
:100BC000206F662074686520626C7565204C454412
:100BD0002069732073657420746F2000000000008A
:100BE0000000000000000000000000000D0A546832
:100BF00065206272696768746E657373206F662022
:100C000074686520677265656E204C454420697381
:100C10002073657420746F20000000000000000045
:100C200000000000000000000D0A54686520627298
:100C3000696768746E657373206F6620626F74688D
:100C4000204C4544732069732073657420746F20B1
:100C50000000000000000000000000000000000094
:100C6000000000000D0A496E76616C696420636FB4
:100C70006D6D616E642000000D0A427269676874D0
:100C80006E657373206F6620626C7565204C4544F9
:100C9000202D20004272696768746E657373206F3F
:100CA0006620677265656E204C4544202D2000004B
:080CB0000D000000200000000F
:080CB80038F9FF7F0100000084
:040CC000D50500084E
:040CC400B10500086E
:100CC80000366E010000000000000000010203046D
:040CD80006070809FA
:0400000508000B4D97
:00000001FF
