:020000040800F2
:1000000000200020C50800080D0900080D0900089F
:100010000D0900080D0900080D0900080000000086
:100020000000000000000000000000000D090008B2
:100030000D090008000000000D0900080D09000866
:100040000D0900080D0900080D0900080D09000838
:100050000D0900080D0900080D0900080D09000828
:100060000D0900080D0900080D0900080D09000818
:100070000D0900080D0900080D0900080D09000808
:100080000D0900080D0900080D0900080000000016
:100090000000000000000000000000000D09000842
:1000A0000D0900080D0900080D0900080D090008D8
:1000B0000D0900080D0900080D0900080D090008C8
:1000C0000D09000800000000000000000D090008F4
:1000D0000D0900080D0900080D0900080D090008A8
:1000E0000D0900080D0900080D09000800000000B6
:1000F0000000000000000000000000000000000000
:1001000000000000000000000000000000000000EF
:1001100000000000000000000D0900080D090008A3
:1001200000000000000000000000000000000000CF
:1001300000000000000000000000000000000000BF
:1001400000000000000000000000000000000000AF
:10015000000000000000000000000000000000009F
:10016000000000000000000000000000000000008F
:10017000000000000000000000000000000000007F
:10018000000000000000000000000000000000006F
:10019000000000000000000000000000000000005F
:1001A000000000000000000000000000000000004F
:1001B000000000000000000000000000000000003F
:1001C0000000000000000000000000005FF808F1DF
:1001D00080B500AF174B1B68164A43F0010313604C
:1001E000144B5A681349144B13404B60114B1B6856
:1001F000104A23F0847323F4803313600D4B1B6883
:100200000C4A23F4802313600A4B5B68094A23F4E9
:10021000FE035360074B4FF41F029A60054B002208
:10022000DA6200F07DF8054B4FF000629A6000BF83
:1002300080BD00BF001002400000FFF800ED00E0AC
:1002400080B485B000AF0023FB600023BB600023B7
:100250007B6000233B602D4B5B6803F00C03FB606D
:10026000FB68082B11D0FB68082B36D8FB68002BE5
:1002700003D0FB68042B04D02FE0254B254A1A60DD
:100280002FE0234B234A1A602BE0204B5B6803F4DA
:100290007013BB601D4B5B6803F480337B60BB68ED
:1002A0009B0C0233BB607B68002B06D1BB681A4AEB
:1002B00002FB03F3164A136013E0144BDB6A03F0EE
:1002C0000F0301333B60134A3B68B2FBF3F3BA6898
:1002D00002FB03F30E4A136003E00D4B0D4A1A6054
:1002E00000BF0A4B5B681B0903F00F030B4AD35C8A
:1002F000DBB2FB60064B1A68FB6822FA03F3044A80
:10030000136000BF1437BD4680BC70470010024028
:100310000000002000127A0000093D0004000020C7
:1003200080B500AF00F002F800BF80BD80B483B09C
:1003300000AF00237B6000233B60304B1B682F4ADB
:1003400043F4803313602D4B1B6803F400333B6090
:100350007B6801337B603B68002B03D17B68B3F57E
:10036000A06FF0D1254B1B6803F40033002B02D0A3
:1003700001233B6001E000233B603B68012B37D148
:100380001E4B1E4A5B6853601C4B1C4A5B685360E3
:100390001A4B1A4A5B685360184B5B68174A23F480
:1003A0007C135360154B5B68144A43F498135360F5
:1003B000124B1B68114A43F08073136000BF0F4B50
:1003C0001B6803F00073002BF9D00C4B5B680B4AE1
:1003D00023F003035360094B5B68084A43F00203B0
:1003E000536000BF054B5B6803F00C03082BF9D189
:1003F00000BF0C37BD4680BC704700BF00100240F4
:1004000070B50D4E0D4D761BB61006D0002455F874
:10041000043B01349847A642F9D1094E094D00F03A
:1004200077FA761BB61006D0002455F8043B013449
:100430009847A642F9D170BD0C0A00080C0A0008C2
:10044000100A00080C0A000810B5054C237833B9CF
:10045000044B13B10448AFF300800123237010BD97
:1004600014000020000000001009000808B5034B2C
:100470001BB103490348AFF3008008BD0000000032
:100480001800002010090008017849B1054A1388B6
:1004900013F0800FFBD0918010F8011F0029F6D1D6
:1004A000704700BF0038014000B58FB0622934D0DA
:1004B0001B4B1C4A672914BF9C4694469CF800209D
:1004C00001AB9E4603F8012B1CF8012F002AF8D13E
:1004D000622907D0672905D082781A70C2780EF198
:1004E000030E04E042781A7082780EF1030E5A70FF
:1004F00020238EF8003025238EF801300D238EF84E
:1005000002300A238EF8033000238EF8043001A84D
:10051000FFF7BAFF0FB05DF804FBDFF80CC0CDE7C2
:1005200054090008800900082809000800B58FB0A8
:10053000104901AB0D2203F8012B11F8012F002AFD
:10054000F9D1421E033001E0904206D012F8011F9B
:100550000029F9D003F8011BF6E70D221A700A22D0
:100560005A7000229A7001A8FFF78EFF0FB05DF855
:1005700004FB00BFB009000800B591B00378FBB1DF
:1005800001AA02F8013B10F8013F002BF9D10D4BF5
:10059000A3FB0103DB0803F13000107003EB8303BE
:1005A000A1EB4301303151700D2393700A23D370B6
:1005B0000023137101A8FFF767FF11B05DF804FB7A
:1005C00001AAE4E7CDCCCCCC10B50C4601460448DA
:1005D000FFF7D2FF21460348FFF7CEFF10BD00BF53
:1005E000C4090008E00900082DE9F04383B0AE4AD1
:1005F000936943F480439361936943F004039361E7
:10060000AA4B596821F0C0015960596841F0B00106
:100610005960596821F440615960596841F400619A
:100620005960196941F48061196103F5405340F63E
:10063000C411198142F20C019981936943F01003AE
:1006400093619B4B596841F003015960596821F04F
:100650000C015960596841F008015960596841F02E
:1006600030015960596821F0C0015960596841F062
:1006700080015960D36943F00203D361936943F069
:1006800001039361A2F58832536843F440635360D9
:10069000884BF0221A8564229A859A8B92B242F096
:1006A00060029A839A8B92B242F4C0429A831A8C67
:1006B00092B242F480721A841A8C92B242F480523E
:1006C0001A841A8892B242F080021A801A8892B272
:1006D00042F001021A80002501950095A946A8461E
:1006E000754C764F764E7AE0002578E0002205F1D1
:1006F00008036B4403F8042C032D0CD0042D51D1B6
:100700009DF80430672B28D0622B4BD19DF8053023
:10071000672B47D125E09DF80520A2F13003DBB21D
:10072000092B3BD89DF80620303AD2B2092A39D895
:100730009DF80410622903D001A8FFF7F7FE34E00A
:1007400003EB830302EB43025FFA82F9594BA3F8F0
:100750003C9001A8FFF7A8FE27E09DF80530622B2A
:1007600020D19DF80630303BDBB2092B1AD89DF81A
:100770000720303AD2B2092A14D803EB830302EBE4
:1007800043025FFA82F84B4BA3F83C80A3F8408009
:10079000632101A8FFF788FEC14606E09DF80430FA
:1007A000692B41D001A8FFF7C1FE9DF804308DF8F8
:1007B00000309DF805308DF801309DF806308DF839
:1007C00002309DF807308DF8033020238DF8043077
:1007D0008DF805308DF806308DF807300025238818
:1007E00013F0200FFBD0A28891B2D2B2238813F06D
:1007F000800FFBD0CBB2A3800D2A3FF477AF0A2A3B
:100800003FF474AF7F2A1AD0082A18D0202A1BD0B0
:10081000042D3FF669AF6B1C05F108010DEB0105D6
:1008200005F8042CDDB2DAE76E2ABBD19DF806305C
:10083000662BB7D149464046FFF7C6FEB5E7002D07
:10084000CDD0013DEDB2CAE79DF800308DF80430FF
:100850009DF801308DF805309DF802308DF8063096
:100860009DF803308DF8073001AB002513F8012BFC
:100870001AB10135EDB2042DF8D13846FFF704FE68
:100880003046FFF701FE3046FFF7FEFD3046FFF72A
:10089000FBFD3046FFF7F8FD3846FFF7F5FD01A8F0
:1008A000FFF7F2FD9BE700BF001002400008014087
:1008B000001001400004004000380140FC0900081D
:1008C000000A0008FFF784FC0B480C490C4A00237F
:1008D00002E0D458C4500433C4188C42F9D3094AF6
:1008E000094C002301E013600432A242FBD3FFF75E
:1008F00087FDFFF779FE70470000002014000020FC
:10090000140A00081400002030000020FEE7000058
:10091000F8B500BFF8BC08BC9E467047F8B500BFEC
:08092000F8BC08BC9E467047BC
:100928000D0A546865206272696768746E6573732E
:10093800206F662074686520626C7565204C45449C
:100948002069732073657420746F20000D0A546841
:1009580065206272696768746E657373206F6620BC
:10096800626F7468204C4544732069732073657402
:1009780020746F20000000000D0A54686520627220
:10098800696768746E657373206F66207468652084
:10099800677265656E204C454420697320736574E1
:1009A80020746F20000000000D0A496E76616C69A2
:1009B8006420636F6D6D616E642000000D0A4272E1
:1009C800696768746E657373206F6620626C7565FD
:1009D800204C4544202D20004272696768746E657A
:1009E8007373206F6620677265656E204C454420DE
:0C09F8002D2000000D0000002000000079
:080A040084FAFF7F01000000ED
:040A0C006D0400086D
:040A1000490400088D
:100A140000366E0100000000000000000102030423
:040A240006070809B0
:04000005080008C522
:00000001FF
