:020000040800F2
:1000000000200020ED080008350900083509000827
:10001000350900083509000835090008000000000E
:10002000000000000000000000000000350900088A
:1000300035090008000000003509000835090008EE
:100040003509000835090008350900083509000898
:100050003509000835090008350900083509000888
:100060003509000835090008350900083509000878
:100070003509000835090008350900083509000868
:10008000350900083509000835090008000000009E
:10009000000000000000000000000000350900081A
:1000A0003509000835090008350900083509000838
:1000B0003509000835090008350900083509000828
:1000C00035090008000000000000000035090008A4
:1000D0003509000835090008350900083509000808
:1000E000350900083509000835090008000000003E
:1000F0000000000000000000000000000000000000
:1001000000000000000000000000000000000000EF
:100110000000000000000000350900083509000853
:1001200000000000000000000000000000000000CF
:1001300000000000000000000000000000000000BF
:1001400000000000000000000000000000000000AF
:10015000000000000000000000000000000000009F
:10016000000000000000000000000000000000008F
:10017000000000000000000000000000000000007F
:10018000000000000000000000000000000000006F
:10019000000000000000000000000000000000005F
:1001A000000000000000000000000000000000004F
:1001B000000000000000000000000000000000003F
:1001C0000000000000000000000000005FF808F1DF
:1001D00080B500AF174B1B68164A43F0010313604C
:1001E000144B5A681349144B13404B60114B1B6856
:1001F000104A23F0847323F4803313600D4B1B6883
:100200000C4A23F4802313600A4B5B68094A23F4E9
:10021000FE035360074B4FF41F029A60054B002208
:10022000DA6200F07DF8054B4FF000629A6000BF83
:1002300080BD00BF001002400000FFF800ED00E0AC
:1002400080B485B000AF0023FB600023BB600023B7
:100250007B6000233B602D4B5B6803F00C03FB606D
:10026000FB68082B11D0FB68082B36D8FB68002BE5
:1002700003D0FB68042B04D02FE0254B254A1A60DD
:100280002FE0234B234A1A602BE0204B5B6803F4DA
:100290007013BB601D4B5B6803F480337B60BB68ED
:1002A0009B0C0233BB607B68002B06D1BB681A4AEB
:1002B00002FB03F3164A136013E0144BDB6A03F0EE
:1002C0000F0301333B60134A3B68B2FBF3F3BA6898
:1002D00002FB03F30E4A136003E00D4B0D4A1A6054
:1002E00000BF0A4B5B681B0903F00F030B4AD35C8A
:1002F000DBB2FB60064B1A68FB6822FA03F3044A80
:10030000136000BF1437BD4680BC70470010024028
:100310000000002000127A0000093D0004000020C7
:1003200080B500AF00F002F800BF80BD80B483B09C
:1003300000AF00237B6000233B60304B1B682F4ADB
:1003400043F4803313602D4B1B6803F400333B6090
:100350007B6801337B603B68002B03D17B68B3F57E
:10036000A06FF0D1254B1B6803F40033002B02D0A3
:1003700001233B6001E000233B603B68012B37D148
:100380001E4B1E4A5B6853601C4B1C4A5B685360E3
:100390001A4B1A4A5B685360184B5B68174A23F480
:1003A0007C135360154B5B68144A43F498135360F5
:1003B000124B1B68114A43F08073136000BF0F4B50
:1003C0001B6803F00073002BF9D00C4B5B680B4AE1
:1003D00023F003035360094B5B68084A43F00203B0
:1003E000536000BF054B5B6803F00C03082BF9D189
:1003F00000BF0C37BD4680BC704700BF00100240F4
:1004000070B50D4E0D4D761BB61006D0002455F874
:10041000043B01349847A642F9D1094E094D00F03A
:100420008BFA761BB61006D0002455F8043B013435
:100430009847A642F9D170BD200A0008200A00089A
:10044000240A0008200A0008830730B548D0541E4B
:10045000002A3FD00346CAB201E0013C3AD303F878
:10046000012B9D07F9D1032C2DD9CDB245EA0525E5
:100470000F2C45EA054536D9A4F1100222F00F0CE5
:1004800003F1200EE6444FEA121C03F1100242E988
:10049000045542E9025510327245F8D10CF10102BF
:1004A00014F00C0F03EB021204F00F0C13D0ACF19C
:1004B000040323F003030433134442F8045B934220
:1004C000FBD10CF003042CB1CAB21C4403F8012B7D
:1004D0009C42FBD130BD64461346002CF4D1F9E7B1
:1004E00003461446BFE71A46A446E0E710B5054C9C
:1004F000237833B9044B13B10448AFF300800123D0
:10050000237010BD1400002000000000380900080E
:1005100008B5034B1BB103490348AFF3008008BD86
:100520000000000018000020380900088446007808
:1005300060B10021064A138813F0800FFBD001310F
:10054000C9B290801CF801000028F4D1704700BFA8
:10055000003801402DE9F04194B0AF4A936943F46B
:1005600080439361936943F004039361AB4B5968F3
:1005700021F0C0015960596841F0B00159605968D3
:1005800021F440615960596841F40061596019696A
:1005900041F48061196103F5405340F6C41119819B
:1005A00042F20C019981936943F0100393619C4BD3
:1005B000596841F003015960596821F00C015960F4
:1005C000596841F008015960596841F0300159609B
:1005D000596821F0C0015960596841F080015960A3
:1005E000D36943F00203D361936943F0010393613C
:1005F000A2F58832536843F440635360894BF0227C
:100600001A8564229A859A8B92B242F060029A838C
:100610009A8B92B242F4C0429A831A8C92B242F4FC
:1006200080721A841A8C92B242F480521A841A8808
:1006300092B242F080021A801A8892B242F001020D
:100640001A800020784C0646784D40E030463EE067
:1006500000F150036B4403F8106C032856D00428B3
:1006600007D19DF84030672B00F0E680622B00F048
:100670002D810DF1040C28686968AA68EB68ACE864
:100680000F002B8AACF800302A2231460DF11600FB
:10069000FFF7DAFE9DF840308DF816309DF84130B6
:1006A0008DF817309DF842308DF818309DF84330A2
:1006B0008DF819300D238DF81A300A238DF81B3070
:1006C00001A8FFF733FF20238DF840303046238800
:1006D00013F0200FFBD0A28891B2D2B2238813F07E
:1006E000800FFBD0CBB2A3800D2AB1D00A2AAFD0A5
:1006F000082A00F0F1800328A8D8431C00F150011B
:100700000DEB010000F8102CD8B2E0E79DF8403066
:10071000622B41D0672BACD19DF84170A7F130031B
:10072000DBB2092BA5D89DF84280A8F13002D2B2E5
:10073000092A9ED803EB830302EB4303DBB2394A59
:10074000A2F840300DF1040CDFF8E4E0BEE80F0041
:10075000ACE80F00BEE80F00ACE80F009EE80F0009
:10076000ACE807000023CDF83530CDF839300F93D1
:100770008DF830708DF8318020238DF832302523AC
:100780008DF833300D238DF834300A238DF8353051
:1007900001A8FFF7CBFE96E79DF84170A7F1300363
:1007A000DBB2092B3FF665AF9DF84280A8F130021D
:1007B000D2B2092A3FF65DAF03EB830302EB43039A
:1007C000DBB2184A93870DF1040CDFF868E0BEE84D
:1007D0000F00ACE80F00BEE80F00ACE80F009EE889
:1007E00007008CE8070000230D930E930F938DF8FC
:1007F0002F708DF8308020238DF8313025238DF82F
:1008000032300D238DF833300A238DF8343001A8AF
:10081000FFF78CFE57E700BF0010024000080140C0
:10082000001001400004004000380140040A0008A4
:100830008C090008500900089DF84130622B7FF4B4
:1008400018AF9DF84270A7F13003DBB2092B3FF6D9
:1008500010AF9DF84380A8F13002D2B2092A3FF6CA
:1008600008AF03EB830302EB4303DBB21D4A93871C
:10087000A2F840300DF1040CDFF86CE0BEE80F0088
:10088000ACE80F00BEE80F00ACE80F009EE80700E0
:10089000ACE803000023CDF83130CDF83530CDF889
:1008A00039300F938DF82C708DF82D8020238DF822
:1008B0002E3025238DF82F300D238DF830300A236C
:1008C0008DF8313001A8FFF731FEFCE69DF841308C
:1008D000672B7FF4CEAEB4E700283FF4F8AE0138C2
:1008E000C0B2F4E600040040C8090008FFF770FC3D
:1008F0000B480C490C4A002302E0D458C45004337E
:10090000C4188C42F9D3094A094C002301E0136052
:100910000432A242FBD3FFF773FDFFF71BFE7047C3
:100920000000002014000020280A00081400002005
:1009300030000020FEE70000F8B500BFF8BC08BC9E
:100940009E467047F8B500BFF8BC08BC9E4670478D
:100950000D0A546865206272696768746E65737306
:10096000206F662074686520626C7565204C454474
:100970002069732073657420746F200000000000EC
:100980000000000000000000000000000D0A546894
:1009900065206272696768746E657373206F662084
:1009A00074686520677265656E204C4544206973E4
:1009B0002073657420746F200000000000000000A8
:1009C00000000000000000000D0A546865206272FB
:1009D000696768746E657373206F6620626F7468F0
:1009E000204C4544732069732073657420746F2014
:1009F00000000000000000000000000000000000F7
:100A0000000000000D0A496E76616C696420636F16
:080A10006D6D616E64000000D1
:080A180014FBFF7F0100000048
:040A200011050008B4
:040A2400ED040008D5
:100A280000366E010000000000000000010203040F
:040A3800060708099C
:04000005080008EDFA
:00000001FF
